00001BERMUDAS                                00000000000000000                                                                         
00002BLUSAS                                  00000000000000000                                                                         
00003CALCAS                                  00000000000000000                                                                         
00004CAMISETAS                               00000000000000000                                                                         
00005CAMISAS                                 00000000000000000                                                                         
00006CASACOS                                 00000000000000000                                                                         
00007CINTO                                   00000000000000000                                                                         
00008JAQUETAS                                00000000000000000                                                                         
00009MACACAO                                 00000000000000000                                                                         
00010SAIAS                                   00000000000000000                                                                         
00011SHORTS                                  00000000000000000                                                                         
00012TOPS                                    00000000000000000                                                                         
00013VESTIDOS                                00000000000000000                                                                         
00014DIVERSOS                                00000000000000000                                                                         
00015COLETES                                 00000000000000000                                                                         
00016B                                       00000000000000000